:020000040000FA
:060000005AEF05F01200AA
:020006001200E6
:08000800DACFE4FFE2CFDAFFDA
:10001000E9CFE4FFEACFE4FFF6CFE4FFF7CFE4FF58
:10002000F5CFE4FFF3CFE4FFF4CFE4FFFACFE4FF32
:1000300000EE00F0140EE80403E3EECFE4FFFBD77C
:1000400000EE14F0060EE80403E3EECFE4FFFBD766
:10005000E6529EAA27D0010100510EE10101FE5196
:100060000BE19EA809D0FFC1E9FFEA6AE9BEEA6890
:100070006DD8FF2B0101016B0101FE5143E0B7EC8C
:1000800004F09EA83FD0FFC1E9FFEA6AE9BEEA6832
:100090005DD80101FF2BFE6B0101006B026B036B4E
:1000A000016B30D0F2A42ED0BAEC00F00101012B8C
:1000B000040EE76E0119E8AE02D0013503D0E75017
:1000C000D88001551EE2010E006F0101FE6FFFC1D5
:1000D00002F10101036F02C1FFF17D0E0101FF5D1D
:1000E0000CE0FFC1E9FFEA6AE9BEEA68810EE92691
:1000F000010EEA22EF6AFF2BF0D7FF6BD59E0101BC
:10010000016BF294E55200EE19F0060EE80403E3E9
:10011000E5CFEDFFFBD700EE13F0140EE80403E388
:10012000E5CFEDFFFBD7E5CFFAFFE5CFF4FFE5CF55
:10013000F3FFE5CFF5FFE5CFF7FFE5CFF6FFE5CF1E
:10014000EAFFE5CFE9FFE5CFDAFF1100810EE926EE
:0A015000010EEA22AECFEFFF12000D
:06015A0002007A0B000018
:10016000FE01000002000000E40A0000000200009E
:0401700096000000F5
:0C017400F50ED76ED70ED66E120066DBBB
:10018000E652DF6A7D0EDF5C05E2DF5064DBEF6A7A
:10019000DF2AF8D7E552E552E7CFD9FF1200010177
:1001A000810520E1030E825D0AE0060E825D07E014
:1001B000820505E0050E825D02E00101046B01018C
:1001C000820501E102D9050E0101825D01E1A1D99B
:1001D000030E0101825D01E108D8060E0101825D76
:1001E00001E1B1D80101036B120030DB090EE126F9
:1001F000DE6ADD6A020EDB6A030EDB6AF36E040E52
:10020000F3CFDBFF050EDB6A58DB080E87DA030E3F
:10021000056F020E086E096ADBCF0DF0030EDBCF0F
:100220000EF016EC05F006C006F14CDB070EEECF23
:10023000DBFF080EEDCFDBFFCDDA020EDBCF18F0CF
:10024000030EDBCF19F0DE501824166EDD50192096
:10025000176E1650145C1750155836E27ADA010EF4
:10026000A6DAFEE1B2DAFF0ED880EE54000EED54AD
:1002700012E26FDA010E9BDAFEE1A7DAEECF14F09C
:10028000EFCF15F015C014F0156AEBDA62DA010E43
:100290008EDAFEE109D0040E59DAEF6A040EDB2A89
:1002A00058DA010E84DAFEE190DAEF50E66E040EC1
:1002B0004DDAE552E750EF6E040EDB2A070EDB2A1B
:1002C000080EBAE3DB2AB8D7040E8BDA050EF3CF9B
:1002D000DBFF060EF4CFDBFF050EDBCF14F0060EBE
:1002E00054DABFDA33DA050EDBCFEFFF020E146EFD
:1002F000040EDBCFE7FF1450E726040EE7CFDBFF49
:10030000070EDB6A080EDB6A65DA040EDB50166E38
:10031000176AE850141802E1175015180BE0ACA248
:10032000FED717DA38DAAD6E070EDB2A080EECE3DB
:10033000DB2AEAD7040EDB6A22DF090EE15C02E267
:10034000E16AE5521DD2ACD999DA010E30DAFEE14C
:100350003CDA060EDBCFEEFF070EDBCFEDFF01012F
:10036000010E046F060EFCD90C0EF3CFDBFF0D0E51
:10037000F4CFDBFF0C0EDBCF14F00D0E06DA14C049
:100380000AF10C0EDBCF0BF10E0EDB6A0F0EDB6AEF
:10039000D9500E0F8EDA080EEE1801E1ED500EE086
:1003A000ACA2FED70E0EDBCFE9FF0F0E6EDAAD6EFC
:1003B0000E0EDB2A0F0EECE3DB2AEAD7E0DE100E8E
:1003C000E15C02E2E16AE552DBD140DA0D0E2ADAA5
:1003D0000C0EA4D9056F080E146E156A020EDBCF41
:1003E00008F0030EDBCF09F014C00DF015C00EF0BD
:1003F00034EC05F0060E08C0DBFF020EDBCF14F074
:10040000030EDBCF15F00001156A070E141614C099
:10041000DBFFDB5002E0060EDB2A060EDBCF06F127
:100420000C0EDFCFDBFF030EF36E0B0EF3CFDBFF03
:10043000060EDB50E76E090EE7CFDBFFDB5038E03E
:10044000090EDB50010817E20A0EDB6ADB500808D0
:100450002AE0B2D906E0010EF36E080EF3CFDBFFFF
:1004600002D0080EDB6ACED904E0D890F336E80655
:10047000FCE1FED9EBD70A0EDB6A070EC3D9F35CA9
:1004800012E09AD906E0010EF36E080EF3CFDBFFFF
:1004900002D0080EDB6AB6D904E0D890F336E8063D
:1004A000FCE1E6D9EAD70B0EDB2A090EDB06C6D73C
:1004B0000B0E97D9040EF3CFDBFF050EF4CFDBFF55
:1004C000040EDBCF14F0050E60D90B0E3FD914C01B
:1004D000EFFF0B0EDB28BFD9040EDBCFEFFF090EB9
:1004E000DB6A0B0EDB50020FF36E090EDB50F35C80
:1004F00009E0ACA2FED7090E29D9EF50AD6E090E66
:10050000DB2AEFD73CDE0D0EE15C02E2E16AE55248
:1005100037D1C6D8D950060FCCD9EE50ED1003E034
:1005200040D9EF6802D03DD9EF6A0101010E046F96
:10053000050E16D90E0EF3CFDBFF0F0EF4CFDBFF47
:100540000E0EDBCF14F00F0E20D914C00AF10E0EE0
:10055000DBCF0BF10C0EDB6A0D0EDB6AD9500C0FF2
:10056000A8D9080EEE1801E1ED500EE0ACA2FED7BE
:100570000C0EDBCFE9FF0D0E88D9AD6E0C0EDB2A19
:100580000D0EECE3DB2AEAD7FADD100EE15C02E2A5
:10059000E16AE552F5D05AD90A0EE126DE68DD6837
:1005A00078D9080EDB6A090EDB6A87D9060EDBCF25
:1005B00014F0070EDBCF15F0FE0EDB50FE0F00012E
:1005C00015AE02D0D89003D0145C000E155834E25A
:1005D000060EDBCFE9FF070E58D9DF1A080EDB6ED7
:1005E000090EDB6AD950080F64D9EE50ED101EE0F9
:1005F000DF50010B0DE002D906E0EC52D890ED324D
:10060000EF32E806FAE15ED9EE70A00EED1A08D0DE
:10061000F5D806E0EC52D890ED32EF32E806FAE178
:10062000080EDB06090EDEE2DB06DCD7060EDB2A4F
:10063000070EBCE3DB2ABAD7EAD8FF0E1416000E69
:10064000151614C015F0146A020E14C0DBFF030E59
:1006500015C0DBFFDCD8000EFF0E151615C014F018
:10066000156A040E14C0DBFF050E15C0DBFF040E77
:10067000DBCF14F0050EDBCF15F0D950020FDAD81E
:10068000020EDBCFDEFFDBCFDDFFC1D814C0F3FFEE
:1006900015C0F4FF0A0EE15C02E2E16AE55270D097
:1006A000D5D8100EBFD8090EDB6A0A0EDB6A0B0E16
:1006B000DB6A0C0EDB6A0D0EDB6A0E0EDB6A0F0EB8
:1006C000DB6A01018351E66ED950040FA5D8D950D9
:1006D000040FE96EB5D88451146E156AD950040F11
:1006E000A9D88451DE6EDD6A8351E66ED950020FBF
:1006F00093D88551E66ED950060F8ED8D950060F83
:10070000D1D8060F97D88651E66ED950080F84D8F5
:100710008551E66ED9500A0F0CEF04F0DB6A010137
:100720008351DE6EDD6AD9CFE9FF8AD88451DF12AA
:100730008551E66ED950020F6FD8D950020FB2D84A
:10074000020F78D80101010E046F1200DB502BEF6D
:1007500004F0070EDBCFE9FF080EDBCFEAFF120043
:10076000056FDFCF07F1020EDBCF06F10A0EDBCFFC
:1007700008F1080EDBCF09F1E66E0DDFE55212003D
:10078000E16EE552E7CFD9FF1200DBCF15F015C0BF
:1007900014F0156A1200040EE926010EEA22EF5049
:1007A00012006CD8640EE926020EEA221200D890DC
:1007B000E936EA36E80612000C0EDB50EA6A640FEE
:1007C000E96E020EEA22EF501200000EE926020E38
:1007D000EA221200070EDBCF14F0080EDBCF15F073
:1007E0001200DB50020FE66ED6DEE5521200F35027
:1007F000EF1A0C0EDB2A0A0EDB2A120063D8010E58
:100800000F0B1200DB50F36E0A0EDB501200DECF2E
:1008100014F0DDCF15F012004CD8E552E750EE6E23
:10082000ED6A1200E126DE6ADD6A33D846D8080E8A
:10083000DB6A12003ED81450EE121550ED12120071
:10084000DACFEAFFEE50ED6EEF6A1200D9CFE6FF85
:10085000E1CFD9FF1200EA6A040FE96E010EEA2225
:100860001200040E73DF14C0EFFF040EDB2A120027
:10087000F350146E0B0E6ADFF7EF03F0040EDBCFBC
:10088000E9FF050EDBCFEAFF1200DBCFEAFFCBEF7B
:1008900003F0020EDB6A030EDB6A040EDB6A050E50
:1008A000DB6A1200E96ECCDF8651146E156AD950EE
:1008B0001200E96EDACFEAFF1200060EDB6A070EBD
:0E08C000DB6A1200D9CFE9FFDACFEAFF12009F
:0208CE00D9CF80
:1008D000E6FFE1CFD9FF040EE126DE6ADE6ADE6ABA
:1008E000DD6ADD52DD52110EDE6E040EDE6EDE6A52
:1008F000DD6ADD52DD52D9CFE9FFDACFEAFF060E1D
:10090000E76ED890030EEB32020EEB32010EEB32A3
:10091000EF32E706F6E1D9CFE9FFDACFEAFFEE06DC
:10092000000EEE5AEE5AEE5A1CD8AC6AAB6A949C92
:10093000948EAC98AC9CAC96AC94AB88AB9C9D8AE6
:100940009D98B896000EDB50AF6EAC8AAB8E040E4D
:10095000E15C02E2E16AE552E16EE552E7CFD9FFE0
:1009600012004F0EAB16AC9ACF0E9D161200D59EFC
:10097000D59CD59AD586F50ED76ED70ED66ED58E68
:0E098000F294F28A1200D09EF28EF28C1200D7
:02098E005A0EFF
:10099000F66E010EF76E000EF86E02010900F550BA
:1009A0009B6F0900F5509C6F03E19B6701D03DD020
:1009B0000900F550966F0900F550976F0900F55042
:1009C000986F09000900F550E96E0900F550EA6ECC
:1009D000090009000900F550996F0900F5509A6F58
:1009E00009000900F6CF9DF2F7CF9EF2F8CF9FF2F3
:1009F00096C2F6FF97C2F7FF98C2F8FF020199531B
:100A000002E19A5307E00900F550EE6E9907F8E20B
:100A10009A07F9D79DC2F6FF9EC2F7FF9FC2F8FF63
:0C0A200002019B07000E9C5BBFD7120078
:040A2C0008C012F0FC
:100A300008500D02F4CF07F0F3CF06F009500E0274
:100A4000F4CF09F0F3CF08F00D02F3500726F4506D
:100A50000822E86A092212500E02F3500726F450C9
:080A60000822E86A0922000CDB
:080A6800056A046A100EE76E36
:100A7000D89008360936043605360D50045C0E5001
:100A8000055805E30D50045E0E50055A082AE72E5E
:040A9000F0D7120089
:0C0A9400000EF36E00EE00F0060E01D81C
:100AA0001200EA6002D0EE6AFCD7F350E96012004F
:040AB000EE6AFCD717
:0C0AB40015EE00F025EE00F0F86A019C41
:100AC000C7EC04F003EC00F068EC05F0FBD7120073
:100AD00067EC04F0C3EC04F001010351FDE0CFEC3E
:040AE00000F0FAD751
:0C0AE40000000000000000000000000006
:100AF00000000000000000000000000000000000F6
:100B000000000000000000000000000000000000E5
:100B100000000000000000000000000000000000D5
:100B200000000000000000000000000000000000C5
:100B300000000000000000000000000000000000B5
:100B400000000000000000000000000000000000A5
:100B50000000000000000000000000000000000095
:100B60000000000000000000000000000000000085
:0A0B7000000000000000000000007B
:020B7A00010078
:020000040030CA
:0100010002FC
:0100020019E4
:010003001EDE
:010005008377
:010006008178
:010008000FE8
:01000900C036
:01000A000FE6
:01000B00E014
:01000C000FE4
:01000D0040B2
:00000001FF
