:020000040000FA
:060000008BEF06F0120078
:020006001200E6
:08000800DACFE4FFE2CFDAFFDA
:10001000E9CFE4FFEACFE4FFF6CFE4FFF7CFE4FF58
:10002000F5CFE4FFF3CFE4FFF4CFE4FFFACFE4FF32
:1000300000EE00F0140EE80403E3EECFE4FFFBD77C
:1000400000EE14F0080EE80403E3EECFE4FFFBD764
:10005000E6529EAA27D0010100510EE10101FE5196
:100060000BE19EA809D0FFC1E9FFEA6AE9BEEA6890
:100070006DD8FF2B0101016B0101FE5143E0E8EC5B
:1000800005F09EA83FD0FFC1E9FFEA6AE9BEEA6831
:100090005DD80101FF2BFE6B0101006B026B036B4E
:1000A000016B30D0F2A42ED0BAEC00F00101012B8C
:1000B000040EE76E0119E8AE02D0013503D0E75017
:1000C000D88001551EE2010E006F0101FE6FFFC1D5
:1000D00002F10101036F02C1FFF17D0E0101FF5D1D
:1000E0000CE0FFC1E9FFEA6AE9BEEA68810EE92691
:1000F000010EEA22EF6AFF2BF0D7FF6BD59E0101BC
:10010000016BF294E55200EE1BF0080EE80403E3E5
:10011000E5CFEDFFFBD700EE13F0140EE80403E388
:10012000E5CFEDFFFBD7E5CFFAFFE5CFF4FFE5CF55
:10013000F3FFE5CFF5FFE5CFF7FFE5CFF6FFE5CF1E
:10014000EAFFE5CFE9FFE5CFDAFF1100810EE926EE
:0A015000010EEA22AECFEFFF12000D
:06015A000200DC0D0000B4
:10016000FE01000002000000460D00000002000039
:0401700096000000F5
:0C017400F50ED76ED70ED66E12006EECA2
:1001800005F0E652DF6A7D0EDF5C06E2DF5036ECFA
:1001900005F0EF6ADF2AF7D7E55265EF05F00101B8
:1001A000810523E1F8D9000920E00101820502E17F
:1001B000C7D81BD0020E825D02E10AD916D0030E09
:1001C000825D02E115D811D0040E825D02E140D8B3
:1001D0000CD0050E825D02E144D907D0060E825D87
:1001E00002E163D802D00101046B0101036B12002C
:1001F000F0DB030EBEDAD2DA19E28CDA010E12DB82
:10020000FEE13CEC05F009E285DA010E0BDBFEE1D4
:1002100007EC05F007DBFEE104D027EC05F002DB7C
:10022000FEE12FEC05F0E7E3DB2AE5D7BFDB47DB98
:1002300002E11750151807E0ACA2FED743EC05F019
:10024000F6E3DB2AF4D789DB02E2E16AE552D5D294
:10025000C0DB040E8EDAA2DA16E25CDA010EE2DA14
:10026000FEE13CEC05F008E255DA010EDBDAFEE1D6
:10027000CEDBD8DAFEE103D0EADBD4DAFEE1EFDB55
:10028000EAE3DB2AE8D792DB1ADB02E11750151804
:1002900007E0ACA2FED743EC05F0F6E3DB2AF4D787
:1002A0005CDB02E2E16AE552A8D2F3D950EC05F03A
:1002B000010EB8DAFEE1FEDA060EDBCFEEFF070E26
:1002C000DBCFEDFF0101010E046F060E056FDFCFDE
:1002D00007F1020EFCDA0C0EF3CFDBFF0D0EF4CFAC
:1002E000DBFF0C0EDBCF14F00D0EB3DA14C00AF1F5
:1002F0000C0EDBCF0BF18B820E0EDB6A0F0EDB6A6E
:10030000D9500E0F92EC05F0090EEE1801E1ED50F8
:100310000FE0ACA2FED70E0EDBCFE9FF0F0EDBCF56
:10032000EAFFAFDA0E0EDB2A0F0EEAE3DB2AE8D78C
:100330008B9225DF100EE15C02E2E16AE5525DD2AC
:10034000CDDBE1DBEED902E0060EDB2A70DADB5012
:1003500030E0090EDB50010813E20A0EDB6ADB50C5
:10036000080822E041DA02E0C3DA02D0080EDB6AB4
:10037000BADA04E0D890F336E806FCE156DBEFD7B2
:100380000A0EDB6A070EAFDAF35C0EE02DDA02E04C
:10039000AFDA02D0080EDB6AA6DA04E0D890F336B2
:1003A000E806FCE142DBEED70B0EDB2A090EDB068A
:1003B000CED71FDBD9DA04E0ACA2FED76ADBFAD7CE
:1003C0008B92DDDE0D0EE15C02E2E16AE55215D2B0
:1003D00085DB99DB020EA5D902E0060EDB2A27DABF
:1003E000DB5030E0090EDB50010813E20A0EDB6A35
:1003F000DB50080822E0F8D902E07ADA02D0080ED1
:10040000DB6A71DA04E0D890F336E806FCE10DDB34
:10041000EFD70A0EDB6A070E66DAF35C0EE0E4D96A
:1004200002E066DA02D0080EDB6A5DDA04E0D890FA
:10043000F336E806FCE1F9DAEED70B0EDB2A090EFB
:10044000DB06CED7D6DA90DA04E0ACA2FED721DB09
:10045000FAD78B9294DE0D0EE15C02E2E16AE5527E
:10046000CCD117D9D950060F64DA03E04DDAEF6822
:1004700002D04ADAEF6A0101010E046F020E056F25
:10048000DFCF07F124DA0E0EF3CFDBFF0F0EF4CF30
:10049000DBFF0E0EDBCF14F00F0EDBD914C00AF118
:1004A0000E0EDBCF0BF18B820C0EDB6A0D0EDB6ABE
:1004B000D9500C0F37DB090EEE1801E1ED500FE0BB
:1004C000ACA2FED70C0EDBCFE9FF0D0EDBCFEAFFAF
:1004D000D8D90C0EDB2A0D0EEBE3DB2AE9D78B9281
:1004E0004EDE100EE15C02E2E16AE55286D135D9BA
:1004F00048DAFE0EDB50FE0F000115AE02D0D89098
:1005000003D0145C000E155828E2C9D9040EE92660
:10051000010EEA22EF50DF1A080EDB6E090EDB6ACD
:10052000D950080F06DA13E0DF50010B06E0BED900
:1005300002E0E4D9FEE120DA04D0B8D902E0DED945
:10054000FEE1080EDB06090EEBE2DB06E9D7060E3C
:10055000DB2A070ECDE3DB2ACBD7E5D914C015F093
:10056000146A2ED9040EDBCF14F0050EDBCF15F084
:10057000D950020F60DA020EDBCFDEFFDBCFDDFFEA
:10058000A8DA14C0F3FF15C0F4FF0A0EE15C02E222
:10059000E16AE55232D1E1D8F4D9020E0101025DDF
:1005A000166E176A16BE176815501718E8AE02D0F7
:1005B000173404D01650145C1750155825E26FD923
:1005C000BCD9DF1A080EF36EDB6E090EDB6AD95058
:1005D000080FAFD913E0DF50010B06E067D902E046
:1005E0008DD9FEE1C9D904D061D902E087D9FEE1F5
:1005F000080EDB06090EEBE2DB06E9D7060EDB2A66
:10060000070ECAE3DB2AC8D78ED9DAD850DA47D921
:1006100094D9176AE85014181AE11750151817E101
:10062000040EDBCF18F0050EDBCF19F0010EE76EDC
:1006300036D9E750E926000EEA227FD91B6AE85036
:10064000181805E11B50191802E1010E01D0000E27
:10065000146E0A0EE15C02E2E16AE552E16E1450AA
:1006600034D2DB6A01018351DE6EDD6AD9CFE9FF46
:10067000E8D98451DF128551E66ED950020F90D926
:10068000D950020F39DA020FD6D90101010E046FD9
:10069000120024DA100E7CD9090EDB6A0A0EDB6A1E
:1006A0000B0EDB6A0C0EDB6A0D0EDB6A0E0EDB6ACC
:1006B0000F0EDB6A01018351E66ED950040F70D929
:1006C000D950040FE96EBDD98451146E156AD95002
:1006D000040FB1D98451DE6EDD6A8351E66ED950C4
:1006E000020F5ED98551E66ED950060F59D9D950FF
:1006F000060F02DA060F9FD98651E66ED950080F11
:100700004FD98551E66ED9500A0FD0EF04F0DB5077
:1007100036EF05F0070EDBCFE9FF080EDBCFEAFF6F
:100720001200056F080E146E156A020EDBCF08F07A
:10073000030EDBCF09F014C00DF015C00EF065EC10
:1007400006F0060E08C0DBFFB2D90001156A070EDD
:10075000141614C0DBFFDB501200C0D90A0EE126CC
:10076000DE68DD68C0D9080EDB6A090EDB6A88EF37
:1007700005F0056F020E086E096ADBCF0DF0030E5F
:10078000DBCF0EF047EC06F006C006F1C6D9070E27
:10079000EECFDBFF080EEDCFDBFF12008FD9020E8C
:1007A000DBCF18F0030EDBCF19F0DE501824166EE5
:1007B000DD501920176E1650145C17501558120092
:1007C000020E14C0DBFF030E15C0DBFF82D9000E42
:1007D000FF0E151615C014F0156A040E14C0DBFFC9
:1007E000050E15C0DBFF12000C0EDB50EA6A640F29
:1007F000E96E020EEA22EF501200E16E66D1050E9C
:10080000DBCFEFFF020E146E040EDBCFE7FF1450B8
:10081000E726040EE7CFDBFF8B82070EDB6A080EAC
:10082000DB6A1200D890E936EA36E8061200060EB6
:10083000DBCF06F10C0EDFCFDBFF030EF36E0B0EEA
:10084000F3CFDBFF060EDB50E76E090EE7CFDBFFD1
:100850001200DBCF15F015C014F0156A120014C099
:10086000EFFF0B0EDB2802D9040EDBCFEFFF8B82EC
:10087000090EDB6A1200DB50020FE66E38DEE5522D
:100880001200040EE926010EEA22EF50AD6E1200AE
:10089000F350EF1A0C0EDB2A0A0EDB2A1200060EAA
:1008A000DBCFE9FF070EDBCFEAFF120036D9010EDE
:1008B0000F0B1200000EE926020EEA221200FED8EB
:1008C000040EDB50166E176AE85014181200DBCFC6
:1008D00006F10A0EDBCF08F1080EDBCF09F1E66E58
:1008E00006DEE5521200DB50F36E0A0EDB501200FA
:1008F000010EF36E080EF3CFDBFF1200EC52D8901E
:10090000ED32EF32E8061200CBD8640EE926020E73
:10091000EA221200E552E750EF6E040EDB2A070EC2
:10092000DB2A080E1200D5D8FF0E1416000E15167D
:100930001200F8D8EE50ED101200810EE926010EDB
:10094000EA22EF501200040EF3CFDBFF050E120077
:1009500014C0EFFF040EDB2A12008B92040EDB6A38
:100960000EDC090EE15C12000B0EDB50030FF36E80
:10097000090EDB50F35C1200D0D8EE70A00EED1A19
:100980001200060EDBCF14F0070EDBCF15F01200BD
:10099000E126DE6ADD6AA7D8BBD8080EDB6A120042
:1009A000C1D8E552E750EE6EED6A1200040E63DF27
:1009B000050EF3CFDBFF060EF4CFDBFF050EDBCF1A
:1009C00014F0060E46DF040EA2DEC2DFA0DEFFEF4B
:1009D00003F084D8090EE126DE6ADD6A020EDB6AC6
:1009E000030EDB6AF36EAFDFDB6A92D8080E31EFDD
:1009F00003F00B0E40DFA7DFF4CFDBFF040EDBCFED
:100A000014F0050E26DF0B0E82DE2FEF04F052DF0E
:100A1000EECF14F0EFCF15F015C014F0156A040EE8
:100A200076DE96DF77DE010E1200F350146E0B0EA9
:100A30006EDE48EF04F076D81450EE121550ED1229
:100A40001200DACFEAFFEE50ED6EEF6A1200040EEC
:100A50005EDEEF6A040EDB2A5DDE010E12002ADF85
:100A6000EF50E66E040E53DE8AEF04F0EA6A040FDC
:100A7000E96E010EEA2212001DDFFF0ED880EE544F
:100A8000000EED54120046DEFCDE070EDB2A080ED7
:100A90001200090E3CDEEF50AD6E090EDB2A12008B
:100AA000040EDBCFE9FF050EDBCFEAFF1200020EDA
:100AB000DBCF14F0030EDBCF15F01200070EDBCFF7
:100AC00014F0080EDBCF15F01200E552E7CFD9FF86
:100AD0001200DECF14F0DDCF15F01200D9CFE6FF03
:100AE000E1CFD9FF1200020EDB6A030EDB6A040EAF
:100AF000DB6A050EDB6A1200E96EA3DF8651146E15
:100B0000156AD95012000D0E43DF0C0E31EF03F0C1
:100B1000060EDB6A070EDB6A1200D9CFE9FFDACFD7
:0C0B2000EAFF1200E96EDACFEAFF1200D3
:040B2C00D9CFE6FF38
:100B3000E1CFD9FF040EE126DE6ADE6ADE6ADD6AF5
:100B4000DD52DD52110EDE6E040EDE6EDE6ADD6AEF
:100B5000DD52DD52D9CFE9FFDACFEAFF060EE76EAC
:100B6000D890030EEB32020EEB32010EEB32EF3275
:100B7000E706F6E1D9CFE9FFDACFEAFFEE06000E8D
:100B8000EE5AEE5AEE5A1ED894928B92AC6AAB6A29
:100B9000949C948EAC98AC9CAC96AC94AB88AB9C7B
:100BA0009D8A9D98B896000EDB50AF6EAC8AAB8ED6
:100BB000040EE15C02E2E16AE552E16EE552E7CF44
:100BC000D9FF12004F0EAB16AC9ACF0E9D16120035
:100BD000D59ED59CD59AD586F50ED76ED70ED66EF6
:100BE000D58EF294F28A1200D09EF28EF28C120010
:100BF0005A0EF66E010EF76E000EF86E0201090035
:100C0000F5509B6F0900F5509C6F03E19B6701D085
:100C10003DD00900F550966F0900F550976F090017
:100C2000F550986F09000900F550E96E0900F5507C
:100C3000EA6E090009000900F550996F0900F550A6
:100C40009A6F09000900F6CF9DF2F7CF9EF2F8CF18
:100C50009FF296C2F6FF97C2F7FF98C2F8FF020113
:100C6000995302E19A5307E00900F550EE6E990797
:100C7000F8E29A07F9D79DC2F6FF9EC2F7FF9FC21E
:0E0C8000F8FF02019B07000E9C5BBFD712001D
:020C8E0008C09C
:100C900012F008500D02F4CF07F0F3CF06F0095020
:100CA0000E02F4CF09F0F3CF08F00D02F35007263F
:100CB000F4500822E86A092212500E02F350072667
:0A0CC000F4500822E86A0922000C33
:060CCA00056A046A100E29
:100CD000E76ED89008360936043605360D50045CA8
:100CE0000E50055805E30D50045E0E50055A082AB3
:060CF000E72EF0D7120010
:0A0CF600000EF36E00EE00F0060E93
:100D000001D81200EA6002D0EE6AFCD7F350E96025
:060D10001200EE6AFCD7A0
:0A0D160015EE00F025EE00F0F86A7B
:100D2000019CF8EC05F003EC00F099EC06F0FBD721
:020D30001200AF
:0E0D320096EC05F0F4EC05F001010351FDE034
:060D4000CFEC00F0FAD731
:0A0D460000000000000000000000A3
:100D50000000000000000000000000000000000093
:100D60000000000000000000000000000000000083
:100D70000000000000000000000000000000000073
:100D80000000000000000000000000000000000063
:100D90000000000000000000000000000000000053
:100DA0000000000000000000000000000000000043
:100DB0000000000000000000000000000000000033
:100DC0000000000000000000000000000000000023
:0C0DD00000000000000000000000000017
:020DDC00010014
:020000040030CA
:0100010002FC
:0100020019E4
:010003001EDE
:010005008377
:010006008178
:010008000FE8
:01000900C036
:01000A000FE6
:01000B00E014
:01000C000FE4
:01000D0040B2
:00000001FF
